{
  "contractName": "Nidhi",
  "abi": [
    {
      "anonymous": false,
      "inputs": [
        {
          "indexed": true,
          "internalType": "uint256",
          "name": "listingId",
          "type": "uint256"
        },
        {
          "indexed": true,
          "internalType": "address",
          "name": "funder",
          "type": "address"
        },
        {
          "indexed": false,
          "internalType": "uint256",
          "name": "amount",
          "type": "uint256"
        }
      ],
      "name": "Funded",
      "type": "event"
    },
    {
      "anonymous": false,
      "inputs": [
        {
          "indexed": true,
          "internalType": "uint256",
          "name": "listingId",
          "type": "uint256"
        }
      ],
      "name": "ListingClosed",
      "type": "event"
    },
    {
      "anonymous": false,
      "inputs": [
        {
          "indexed": true,
          "internalType": "uint256",
          "name": "listingId",
          "type": "uint256"
        },
        {
          "indexed": true,
          "internalType": "address",
          "name": "creator",
          "type": "address"
        },
        {
          "indexed": false,
          "internalType": "string",
          "name": "title",
          "type": "string"
        },
        {
          "indexed": false,
          "internalType": "uint256",
          "name": "targetAmount",
          "type": "uint256"
        }
      ],
      "name": "ListingCreated",
      "type": "event"
    },
    {
      "inputs": [],
      "name": "listingCount",
      "outputs": [
        {
          "internalType": "uint256",
          "name": "",
          "type": "uint256"
        }
      ],
      "stateMutability": "view",
      "type": "function",
      "constant": true
    },
    {
      "inputs": [
        {
          "internalType": "uint256",
          "name": "",
          "type": "uint256"
        }
      ],
      "name": "listings",
      "outputs": [
        {
          "internalType": "address",
          "name": "creator",
          "type": "address"
        },
        {
          "internalType": "string",
          "name": "title",
          "type": "string"
        },
        {
          "internalType": "string",
          "name": "description",
          "type": "string"
        },
        {
          "internalType": "uint256",
          "name": "targetAmount",
          "type": "uint256"
        },
        {
          "internalType": "uint256",
          "name": "amountRaised",
          "type": "uint256"
        },
        {
          "internalType": "bool",
          "name": "isActive",
          "type": "bool"
        }
      ],
      "stateMutability": "view",
      "type": "function",
      "constant": true
    },
    {
      "inputs": [
        {
          "internalType": "string",
          "name": "_title",
          "type": "string"
        },
        {
          "internalType": "string",
          "name": "_description",
          "type": "string"
        },
        {
          "internalType": "uint256",
          "name": "_targetAmount",
          "type": "uint256"
        }
      ],
      "name": "createListing",
      "outputs": [],
      "stateMutability": "nonpayable",
      "type": "function"
    },
    {
      "inputs": [
        {
          "internalType": "uint256",
          "name": "_listingId",
          "type": "uint256"
        }
      ],
      "name": "fundListing",
      "outputs": [],
      "stateMutability": "payable",
      "type": "function",
      "payable": true
    },
    {
      "inputs": [
        {
          "internalType": "uint256",
          "name": "_listingId",
          "type": "uint256"
        }
      ],
      "name": "closeListing",
      "outputs": [],
      "stateMutability": "nonpayable",
      "type": "function"
    }
  ],
  "bytecode": "0x608060405234801561000f575f80fd5b506111b18061001d5f395ff3fe608060405260043610610049575f3560e01c8063049604131461004d5780634652c3e214610069578063a9b07c2614610091578063de74e57b146100bb578063e5a255cb146100fc575b5f80fd5b610067600480360381019061006291906107ca565b610124565b005b348015610074575f80fd5b5061008f600480360381019061008a9190610931565b6102e0565b005b34801561009c575f80fd5b506100a561048f565b6040516100b291906109c8565b60405180910390f35b3480156100c6575f80fd5b506100e160048036038101906100dc91906107ca565b610495565b6040516100f396959493929190610ab4565b60405180910390f35b348015610107575f80fd5b50610122600480360381019061011d91906107ca565b610603565b005b6001548110610168576040517f08c379a000000000000000000000000000000000000000000000000000000000815260040161015f90610b6b565b60405180910390fd5b5f805f8381526020019081526020015f209050806005015f9054906101000a900460ff166101cb576040517f08c379a00000000000000000000000000000000000000000000000000000000081526004016101c290610bd3565b60405180910390fd5b5f341161020d576040517f08c379a000000000000000000000000000000000000000000000000000000000815260040161020490610c3b565b60405180910390fd5b34816004015f8282546102209190610c86565b92505081905550805f015f9054906101000a900473ffffffffffffffffffffffffffffffffffffffff1673ffffffffffffffffffffffffffffffffffffffff166108fc3490811502906040515f60405180830381858888f1935050505015801561028c573d5f803e3d5ffd5b503373ffffffffffffffffffffffffffffffffffffffff16827f38c48552690c96ec2872092ac1db6c19fb59f5a8c5b49bbf41ed4886d0ca6926346040516102d491906109c8565b60405180910390a35050565b5f8111610322576040517f08c379a000000000000000000000000000000000000000000000000000000000815260040161031990610d29565b60405180910390fd5b6040518060c001604052803373ffffffffffffffffffffffffffffffffffffffff1681526020018481526020018381526020018281526020015f8152602001600115158152505f8060015481526020019081526020015f205f820151815f015f6101000a81548173ffffffffffffffffffffffffffffffffffffffff021916908373ffffffffffffffffffffffffffffffffffffffff16021790555060208201518160010190816103d39190610f41565b5060408201518160020190816103e99190610f41565b50606082015181600301556080820151816004015560a0820151816005015f6101000a81548160ff0219169083151502179055509050503373ffffffffffffffffffffffffffffffffffffffff166001547f6b7a3194eaddce2be5200d10785a15a5cd14a78b827cf902f4d23c35e6bd73f8858460405161046b929190611010565b60405180910390a360015f8154809291906104859061103e565b9190505550505050565b60015481565b5f602052805f5260405f205f91509050805f015f9054906101000a900473ffffffffffffffffffffffffffffffffffffffff16908060010180546104d890610d74565b80601f016020809104026020016040519081016040528092919081815260200182805461050490610d74565b801561054f5780601f106105265761010080835404028352916020019161054f565b820191905f5260205f20905b81548152906001019060200180831161053257829003601f168201915b50505050509080600201805461056490610d74565b80601f016020809104026020016040519081016040528092919081815260200182805461059090610d74565b80156105db5780601f106105b2576101008083540402835291602001916105db565b820191905f5260205f20905b8154815290600101906020018083116105be57829003601f168201915b505050505090806003015490806004015490806005015f9054906101000a900460ff16905086565b6001548110610647576040517f08c379a000000000000000000000000000000000000000000000000000000000815260040161063e90610b6b565b60405180910390fd5b5f805f8381526020019081526020015f209050805f015f9054906101000a900473ffffffffffffffffffffffffffffffffffffffff1673ffffffffffffffffffffffffffffffffffffffff163373ffffffffffffffffffffffffffffffffffffffff16146106ea576040517f08c379a00000000000000000000000000000000000000000000000000000000081526004016106e1906110f5565b60405180910390fd5b806005015f9054906101000a900460ff1661073a576040517f08c379a00000000000000000000000000000000000000000000000000000000081526004016107319061115d565b60405180910390fd5b5f816005015f6101000a81548160ff021916908315150217905550817fe99def7a5a3c84553486ad726f7c64fbeea0bdbcbe46d5ee07958a8bf5d8e2dd60405160405180910390a25050565b5f604051905090565b5f80fd5b5f80fd5b5f819050919050565b6107a981610797565b81146107b3575f80fd5b50565b5f813590506107c4816107a0565b92915050565b5f602082840312156107df576107de61078f565b5b5f6107ec848285016107b6565b91505092915050565b5f80fd5b5f80fd5b5f601f19601f8301169050919050565b7f4e487b71000000000000000000000000000000000000000000000000000000005f52604160045260245ffd5b610843826107fd565b810181811067ffffffffffffffff821117156108625761086161080d565b5b80604052505050565b5f610874610786565b9050610880828261083a565b919050565b5f67ffffffffffffffff82111561089f5761089e61080d565b5b6108a8826107fd565b9050602081019050919050565b828183375f83830152505050565b5f6108d56108d084610885565b61086b565b9050828152602081018484840111156108f1576108f06107f9565b5b6108fc8482856108b5565b509392505050565b5f82601f830112610918576109176107f5565b5b81356109288482602086016108c3565b91505092915050565b5f805f606084860312156109485761094761078f565b5b5f84013567ffffffffffffffff81111561096557610964610793565b5b61097186828701610904565b935050602084013567ffffffffffffffff81111561099257610991610793565b5b61099e86828701610904565b92505060406109af868287016107b6565b9150509250925092565b6109c281610797565b82525050565b5f6020820190506109db5f8301846109b9565b92915050565b5f73ffffffffffffffffffffffffffffffffffffffff82169050919050565b5f610a0a826109e1565b9050919050565b610a1a81610a00565b82525050565b5f81519050919050565b5f82825260208201905092915050565b5f5b83811015610a57578082015181840152602081019050610a3c565b5f8484015250505050565b5f610a6c82610a20565b610a768185610a2a565b9350610a86818560208601610a3a565b610a8f816107fd565b840191505092915050565b5f8115159050919050565b610aae81610a9a565b82525050565b5f60c082019050610ac75f830189610a11565b8181036020830152610ad98188610a62565b90508181036040830152610aed8187610a62565b9050610afc60608301866109b9565b610b0960808301856109b9565b610b1660a0830184610aa5565b979650505050505050565b7f4c697374696e6720646f6573206e6f74206578697374000000000000000000005f82015250565b5f610b55601683610a2a565b9150610b6082610b21565b602082019050919050565b5f6020820190508181035f830152610b8281610b49565b9050919050565b7f4c697374696e67206973206e6f742061637469766500000000000000000000005f82015250565b5f610bbd601583610a2a565b9150610bc882610b89565b602082019050919050565b5f6020820190508181035f830152610bea81610bb1565b9050919050565b7f4d7573742073656e6420736f6d652066756e64730000000000000000000000005f82015250565b5f610c25601483610a2a565b9150610c3082610bf1565b602082019050919050565b5f6020820190508181035f830152610c5281610c19565b9050919050565b7f4e487b71000000000000000000000000000000000000000000000000000000005f52601160045260245ffd5b5f610c9082610797565b9150610c9b83610797565b9250828201905080821115610cb357610cb2610c59565b5b92915050565b7f54617267657420616d6f756e74206d75737420626520677265617465722074685f8201527f616e207a65726f00000000000000000000000000000000000000000000000000602082015250565b5f610d13602783610a2a565b9150610d1e82610cb9565b604082019050919050565b5f6020820190508181035f830152610d4081610d07565b9050919050565b7f4e487b71000000000000000000000000000000000000000000000000000000005f52602260045260245ffd5b5f6002820490506001821680610d8b57607f821691505b602082108103610d9e57610d9d610d47565b5b50919050565b5f819050815f5260205f209050919050565b5f6020601f8301049050919050565b5f82821b905092915050565b5f60088302610e007fffffffffffffffffffffffffffffffffffffffffffffffffffffffffffffffff82610dc5565b610e0a8683610dc5565b95508019841693508086168417925050509392505050565b5f819050919050565b5f610e45610e40610e3b84610797565b610e22565b610797565b9050919050565b5f819050919050565b610e5e83610e2b565b610e72610e6a82610e4c565b848454610dd1565b825550505050565b5f90565b610e86610e7a565b610e91818484610e55565b505050565b5b81811015610eb457610ea95f82610e7e565b600181019050610e97565b5050565b601f821115610ef957610eca81610da4565b610ed384610db6565b81016020851015610ee2578190505b610ef6610eee85610db6565b830182610e96565b50505b505050565b5f82821c905092915050565b5f610f195f1984600802610efe565b1980831691505092915050565b5f610f318383610f0a565b9150826002028217905092915050565b610f4a82610a20565b67ffffffffffffffff811115610f6357610f6261080d565b5b610f6d8254610d74565b610f78828285610eb8565b5f60209050601f831160018114610fa9575f8415610f97578287015190505b610fa18582610f26565b865550611008565b601f198416610fb786610da4565b5f5b82811015610fde57848901518255600182019150602085019450602081019050610fb9565b86831015610ffb5784890151610ff7601f891682610f0a565b8355505b6001600288020188555050505b505050505050565b5f6040820190508181035f8301526110288185610a62565b905061103760208301846109b9565b9392505050565b5f61104882610797565b91507fffffffffffffffffffffffffffffffffffffffffffffffffffffffffffffffff820361107a57611079610c59565b5b600182019050919050565b7f4f6e6c79207468652063726561746f722063616e20636c6f736520746865206c5f8201527f697374696e670000000000000000000000000000000000000000000000000000602082015250565b5f6110df602683610a2a565b91506110ea82611085565b604082019050919050565b5f6020820190508181035f83015261110c816110d3565b9050919050565b7f4c697374696e6720697320616c726561647920636c6f736564000000000000005f82015250565b5f611147601983610a2a565b915061115282611113565b602082019050919050565b5f6020820190508181035f8301526111748161113b565b905091905056fea26469706673582212205667a78427dbc49224a29f213dc5269ba20112877fe7b575beeb1cdf343452a264736f6c63430008140033",
  "immutableReferences": {},
  "source": "// SPDX-License-Identifier: MIT\r\npragma solidity ^0.8.20;\r\n\r\ncontract Nidhi {\r\n    struct Listing {\r\n        address creator;\r\n        string title;\r\n        string description;\r\n        uint256 targetAmount;\r\n        uint256 amountRaised;\r\n        bool isActive;\r\n    }\r\n\r\n    mapping(uint256 => Listing) public listings;\r\n    uint256 public listingCount;\r\n\r\n    event ListingCreated(uint256 indexed listingId, address indexed creator, string title, uint256 targetAmount);\r\n    event Funded(uint256 indexed listingId, address indexed funder, uint256 amount);\r\n    event ListingClosed(uint256 indexed listingId);\r\n\r\n    function createListing(string memory _title, string memory _description, uint256 _targetAmount) external {\r\n        require(_targetAmount > 0, \"Target amount must be greater than zero\");\r\n        \r\n        listings[listingCount] = Listing({\r\n            creator: msg.sender,\r\n            title: _title,\r\n            description: _description,\r\n            targetAmount: _targetAmount,\r\n            amountRaised: 0,\r\n            isActive: true\r\n        });\r\n        \r\n        emit ListingCreated(listingCount, msg.sender, _title, _targetAmount);\r\n        listingCount++;\r\n    }\r\n\r\n    function fundListing(uint256 _listingId) external payable {\r\n        require(_listingId < listingCount, \"Listing does not exist\");\r\n        Listing storage listing = listings[_listingId];\r\n        require(listing.isActive, \"Listing is not active\");\r\n        require(msg.value > 0, \"Must send some funds\");\r\n        \r\n        listing.amountRaised += msg.value;\r\n        payable(listing.creator).transfer(msg.value);\r\n        \r\n        emit Funded(_listingId, msg.sender, msg.value);\r\n    }\r\n\r\n    function closeListing(uint256 _listingId) external {\r\n        require(_listingId < listingCount, \"Listing does not exist\");\r\n        Listing storage listing = listings[_listingId];\r\n        require(msg.sender == listing.creator, \"Only the creator can close the listing\");\r\n        require(listing.isActive, \"Listing is already closed\");\r\n        \r\n        listing.isActive = false;\r\n        emit ListingClosed(_listingId);\r\n    }\r\n}\r\n",
  "sourcePath": "C:\\Vashishta\\projectnidhi\\contracts\\NidhiFund.sol",
  "compiler": {
    "name": "solc",
    "version": "0.8.20+commit.a1b79de6.Emscripten.clang"
  },
  "schemaVersion": "3.4.16",
  "updatedAt": "2025-02-21T03:43:01.004Z",
  "networkType": "ethereum",
  "devdoc": {
    "kind": "dev",
    "methods": {},
    "version": 1
  },
  "userdoc": {
    "kind": "user",
    "methods": {},
    "version": 1
  }
}